{
  "address": "0xc87c0662363caA12B8791d7f7e07D1A8609AB133",
  "abi": [
    {
      "inputs": [
        {
          "internalType": "string",
          "name": "baseURI",
          "type": "string"
        },
        {
          "internalType": "address",
          "name": "_poolAddr",
          "type": "address"
        }
      ],
      "stateMutability": "nonpayable",
      "type": "constructor"
    },
    {
      "anonymous": false,
      "inputs": [
        {
          "indexed": true,
          "internalType": "address",
          "name": "owner",
          "type": "address"
        },
        {
          "indexed": true,
          "internalType": "address",
          "name": "approved",
          "type": "address"
        },
        {
          "indexed": true,
          "internalType": "uint256",
          "name": "tokenId",
          "type": "uint256"
        }
      ],
      "name": "Approval",
      "type": "event"
    },
    {
      "anonymous": false,
      "inputs": [
        {
          "indexed": true,
          "internalType": "address",
          "name": "owner",
          "type": "address"
        },
        {
          "indexed": true,
          "internalType": "address",
          "name": "operator",
          "type": "address"
        },
        {
          "indexed": false,
          "internalType": "bool",
          "name": "approved",
          "type": "bool"
        }
      ],
      "name": "ApprovalForAll",
      "type": "event"
    },
    {
      "anonymous": false,
      "inputs": [
        {
          "indexed": true,
          "internalType": "uint256",
          "name": "id",
          "type": "uint256"
        }
      ],
      "name": "CreateTKO",
      "type": "event"
    },
    {
      "anonymous": false,
      "inputs": [
        {
          "indexed": true,
          "internalType": "address",
          "name": "previousOwner",
          "type": "address"
        },
        {
          "indexed": true,
          "internalType": "address",
          "name": "newOwner",
          "type": "address"
        }
      ],
      "name": "OwnershipTransferred",
      "type": "event"
    },
    {
      "anonymous": false,
      "inputs": [
        {
          "indexed": false,
          "internalType": "address",
          "name": "account",
          "type": "address"
        }
      ],
      "name": "Paused",
      "type": "event"
    },
    {
      "anonymous": false,
      "inputs": [
        {
          "indexed": false,
          "internalType": "address",
          "name": "addr",
          "type": "address"
        }
      ],
      "name": "PoolAddrSet",
      "type": "event"
    },
    {
      "anonymous": false,
      "inputs": [
        {
          "indexed": true,
          "internalType": "address",
          "name": "from",
          "type": "address"
        },
        {
          "indexed": true,
          "internalType": "address",
          "name": "to",
          "type": "address"
        },
        {
          "indexed": true,
          "internalType": "uint256",
          "name": "tokenId",
          "type": "uint256"
        }
      ],
      "name": "Transfer",
      "type": "event"
    },
    {
      "anonymous": false,
      "inputs": [
        {
          "indexed": false,
          "internalType": "address",
          "name": "account",
          "type": "address"
        }
      ],
      "name": "Unpaused",
      "type": "event"
    },
    {
      "inputs": [],
      "name": "MAX_ELEMENTS",
      "outputs": [
        {
          "internalType": "uint256",
          "name": "",
          "type": "uint256"
        }
      ],
      "stateMutability": "view",
      "type": "function"
    },
    {
      "inputs": [],
      "name": "MAX_PUBLIC_MINT",
      "outputs": [
        {
          "internalType": "uint256",
          "name": "",
          "type": "uint256"
        }
      ],
      "stateMutability": "view",
      "type": "function"
    },
    {
      "inputs": [],
      "name": "PRICE",
      "outputs": [
        {
          "internalType": "uint256",
          "name": "",
          "type": "uint256"
        }
      ],
      "stateMutability": "view",
      "type": "function"
    },
    {
      "inputs": [
        {
          "internalType": "address",
          "name": "to",
          "type": "address"
        },
        {
          "internalType": "uint256",
          "name": "tokenId",
          "type": "uint256"
        }
      ],
      "name": "approve",
      "outputs": [],
      "stateMutability": "nonpayable",
      "type": "function"
    },
    {
      "inputs": [
        {
          "internalType": "address",
          "name": "owner",
          "type": "address"
        }
      ],
      "name": "balanceOf",
      "outputs": [
        {
          "internalType": "uint256",
          "name": "",
          "type": "uint256"
        }
      ],
      "stateMutability": "view",
      "type": "function"
    },
    {
      "inputs": [],
      "name": "baseTokenURI",
      "outputs": [
        {
          "internalType": "string",
          "name": "",
          "type": "string"
        }
      ],
      "stateMutability": "view",
      "type": "function"
    },
    {
      "inputs": [
        {
          "internalType": "uint256",
          "name": "tokenId",
          "type": "uint256"
        }
      ],
      "name": "burn",
      "outputs": [],
      "stateMutability": "nonpayable",
      "type": "function"
    },
    {
      "inputs": [
        {
          "internalType": "uint256",
          "name": "tokenId",
          "type": "uint256"
        }
      ],
      "name": "getApproved",
      "outputs": [
        {
          "internalType": "address",
          "name": "",
          "type": "address"
        }
      ],
      "stateMutability": "view",
      "type": "function"
    },
    {
      "inputs": [
        {
          "internalType": "address",
          "name": "owner",
          "type": "address"
        },
        {
          "internalType": "address",
          "name": "operator",
          "type": "address"
        }
      ],
      "name": "isApprovedForAll",
      "outputs": [
        {
          "internalType": "bool",
          "name": "",
          "type": "bool"
        }
      ],
      "stateMutability": "view",
      "type": "function"
    },
    {
      "inputs": [
        {
          "internalType": "uint256",
          "name": "_amount",
          "type": "uint256"
        }
      ],
      "name": "mint",
      "outputs": [],
      "stateMutability": "payable",
      "type": "function"
    },
    {
      "inputs": [],
      "name": "name",
      "outputs": [
        {
          "internalType": "string",
          "name": "",
          "type": "string"
        }
      ],
      "stateMutability": "view",
      "type": "function"
    },
    {
      "inputs": [],
      "name": "owner",
      "outputs": [
        {
          "internalType": "address",
          "name": "",
          "type": "address"
        }
      ],
      "stateMutability": "view",
      "type": "function"
    },
    {
      "inputs": [
        {
          "internalType": "uint256",
          "name": "tokenId",
          "type": "uint256"
        }
      ],
      "name": "ownerOf",
      "outputs": [
        {
          "internalType": "address",
          "name": "",
          "type": "address"
        }
      ],
      "stateMutability": "view",
      "type": "function"
    },
    {
      "inputs": [
        {
          "internalType": "bool",
          "name": "val",
          "type": "bool"
        }
      ],
      "name": "pause",
      "outputs": [],
      "stateMutability": "nonpayable",
      "type": "function"
    },
    {
      "inputs": [],
      "name": "paused",
      "outputs": [
        {
          "internalType": "bool",
          "name": "",
          "type": "bool"
        }
      ],
      "stateMutability": "view",
      "type": "function"
    },
    {
      "inputs": [
        {
          "internalType": "uint256",
          "name": "_count",
          "type": "uint256"
        }
      ],
      "name": "price",
      "outputs": [
        {
          "internalType": "uint256",
          "name": "",
          "type": "uint256"
        }
      ],
      "stateMutability": "pure",
      "type": "function"
    },
    {
      "inputs": [],
      "name": "renounceOwnership",
      "outputs": [],
      "stateMutability": "nonpayable",
      "type": "function"
    },
    {
      "inputs": [
        {
          "internalType": "address",
          "name": "from",
          "type": "address"
        },
        {
          "internalType": "address",
          "name": "to",
          "type": "address"
        },
        {
          "internalType": "uint256",
          "name": "tokenId",
          "type": "uint256"
        }
      ],
      "name": "safeTransferFrom",
      "outputs": [],
      "stateMutability": "nonpayable",
      "type": "function"
    },
    {
      "inputs": [
        {
          "internalType": "address",
          "name": "from",
          "type": "address"
        },
        {
          "internalType": "address",
          "name": "to",
          "type": "address"
        },
        {
          "internalType": "uint256",
          "name": "tokenId",
          "type": "uint256"
        },
        {
          "internalType": "bytes",
          "name": "_data",
          "type": "bytes"
        }
      ],
      "name": "safeTransferFrom",
      "outputs": [],
      "stateMutability": "nonpayable",
      "type": "function"
    },
    {
      "inputs": [
        {
          "internalType": "address",
          "name": "operator",
          "type": "address"
        },
        {
          "internalType": "bool",
          "name": "approved",
          "type": "bool"
        }
      ],
      "name": "setApprovalForAll",
      "outputs": [],
      "stateMutability": "nonpayable",
      "type": "function"
    },
    {
      "inputs": [
        {
          "internalType": "string",
          "name": "baseURI",
          "type": "string"
        }
      ],
      "name": "setBaseURI",
      "outputs": [],
      "stateMutability": "nonpayable",
      "type": "function"
    },
    {
      "inputs": [
        {
          "internalType": "address",
          "name": "_addr",
          "type": "address"
        }
      ],
      "name": "setStakingPool",
      "outputs": [],
      "stateMutability": "nonpayable",
      "type": "function"
    },
    {
      "inputs": [
        {
          "internalType": "uint256",
          "name": "_tokenId",
          "type": "uint256"
        }
      ],
      "name": "startStaking",
      "outputs": [],
      "stateMutability": "nonpayable",
      "type": "function"
    },
    {
      "inputs": [
        {
          "internalType": "uint256",
          "name": "_tokenId",
          "type": "uint256"
        }
      ],
      "name": "stopStaking",
      "outputs": [],
      "stateMutability": "nonpayable",
      "type": "function"
    },
    {
      "inputs": [
        {
          "internalType": "bytes4",
          "name": "interfaceId",
          "type": "bytes4"
        }
      ],
      "name": "supportsInterface",
      "outputs": [
        {
          "internalType": "bool",
          "name": "",
          "type": "bool"
        }
      ],
      "stateMutability": "view",
      "type": "function"
    },
    {
      "inputs": [],
      "name": "symbol",
      "outputs": [
        {
          "internalType": "string",
          "name": "",
          "type": "string"
        }
      ],
      "stateMutability": "view",
      "type": "function"
    },
    {
      "inputs": [
        {
          "internalType": "uint256",
          "name": "index",
          "type": "uint256"
        }
      ],
      "name": "tokenByIndex",
      "outputs": [
        {
          "internalType": "uint256",
          "name": "",
          "type": "uint256"
        }
      ],
      "stateMutability": "view",
      "type": "function"
    },
    {
      "inputs": [
        {
          "internalType": "address",
          "name": "owner",
          "type": "address"
        },
        {
          "internalType": "uint256",
          "name": "index",
          "type": "uint256"
        }
      ],
      "name": "tokenOfOwnerByIndex",
      "outputs": [
        {
          "internalType": "uint256",
          "name": "",
          "type": "uint256"
        }
      ],
      "stateMutability": "view",
      "type": "function"
    },
    {
      "inputs": [
        {
          "internalType": "uint256",
          "name": "tokenId",
          "type": "uint256"
        }
      ],
      "name": "tokenURI",
      "outputs": [
        {
          "internalType": "string",
          "name": "",
          "type": "string"
        }
      ],
      "stateMutability": "view",
      "type": "function"
    },
    {
      "inputs": [],
      "name": "totalSupply",
      "outputs": [
        {
          "internalType": "uint256",
          "name": "",
          "type": "uint256"
        }
      ],
      "stateMutability": "view",
      "type": "function"
    },
    {
      "inputs": [
        {
          "internalType": "address",
          "name": "from",
          "type": "address"
        },
        {
          "internalType": "address",
          "name": "to",
          "type": "address"
        },
        {
          "internalType": "uint256",
          "name": "tokenId",
          "type": "uint256"
        }
      ],
      "name": "transferFrom",
      "outputs": [],
      "stateMutability": "nonpayable",
      "type": "function"
    },
    {
      "inputs": [
        {
          "internalType": "address",
          "name": "newOwner",
          "type": "address"
        }
      ],
      "name": "transferOwnership",
      "outputs": [],
      "stateMutability": "nonpayable",
      "type": "function"
    },
    {
      "inputs": [
        {
          "internalType": "address",
          "name": "_owner",
          "type": "address"
        }
      ],
      "name": "walletOfOwner",
      "outputs": [
        {
          "internalType": "uint256[]",
          "name": "",
          "type": "uint256[]"
        }
      ],
      "stateMutability": "view",
      "type": "function"
    },
    {
      "inputs": [],
      "name": "withdraw",
      "outputs": [],
      "stateMutability": "payable",
      "type": "function"
    }
  ],
  "transactionHash": "0x9960895e6fc5ab1e0a576cd1e1e304c5e55d18f8c4d2d3a10aa02ef4fa5e32ec",
  "args": [
    "https://ipfs.io/ipfs/QmQtN81i9eNrD3wxcr67scDpLvZDDXxbmAvNXMaZh3D6tB/",
    "0x6F84Fa72Ca4554E0eEFcB9032e5A4F1FB41b726C"
  ],
  "solcInputHash": "928aa45d3110de359cd25d2805a013b6",
  "bytecode": "0x60806040523480156200001157600080fd5b5060405162002ef238038062002ef2833981016040819052620000349162000296565b604080518082018252601481527f54656e7461636c65204b6e6f636b6f7574207631000000000000000000000000602080830191825283518085019094526003845262544b4f60e81b9084015281519192916200009491600091620001d3565b508051620000aa906001906020840190620001d3565b505050620000c7620000c16200010660201b60201c565b6200010a565b600a805460ff60a01b19169055620000df826200015c565b600b80546001600160a01b0319166001600160a01b03929092169190911790555062000402565b3390565b600a80546001600160a01b038381166001600160a01b0319831681179093556040519116919082907f8be0079c531659141344cd1fd0a4f28419497f9722a3daafe3b4186f6b6457e090600090a35050565b6200016662000106565b6001600160a01b031662000179620001c4565b6001600160a01b031614620001ab5760405162461bcd60e51b8152600401620001a2906200037a565b60405180910390fd5b8051620001c090600c906020840190620001d3565b5050565b600a546001600160a01b031690565b828054620001e190620003af565b90600052602060002090601f01602090048101928262000205576000855562000250565b82601f106200022057805160ff191683800117855562000250565b8280016001018555821562000250579182015b828111156200025057825182559160200191906001019062000233565b506200025e92915062000262565b5090565b5b808211156200025e576000815560010162000263565b80516001600160a01b03811681146200029157600080fd5b919050565b60008060408385031215620002a9578182fd5b82516001600160401b0380821115620002c0578384fd5b818501915085601f830112620002d4578384fd5b815181811115620002e957620002e9620003ec565b6040516020601f8301601f1916820181018481118382101715620003115762000311620003ec565b604052828252848301810189101562000328578687fd5b8693505b828410156200034b57848401810151828501820152928301926200032c565b828411156200035c57868184840101525b8196506200036c81890162000279565b955050505050509250929050565b6020808252818101527f4f776e61626c653a2063616c6c6572206973206e6f7420746865206f776e6572604082015260600190565b600281046001821680620003c457607f821691505b60208210811415620003e657634e487b7160e01b600052602260045260246000fd5b50919050565b634e487b7160e01b600052604160045260246000fd5b612ae080620004126000396000f3fe6080604052600436106101f95760003560e01c806355f804b31161010d5780638da5cb5b116100a0578063b88d4fde1161006f578063b88d4fde14610562578063c87b56dd14610582578063d547cfb7146105a2578063e985e9c5146105b7578063f2fde38b146105d7576101f9565b80638da5cb5b1461050557806395d89b411461051a578063a0712d681461052f578063a22cb46514610542576101f9565b806370a08231116100dc57806370a082311461049b578063715018a6146104bb578063762b1c92146104d05780638d859f3e146104f0576101f9565b806355f804b3146104315780635c975abb146104515780636352211e1461046657806365f1309714610486576101f9565b806326a49e37116101905780633ccfd60b1161015f5780633ccfd60b1461039c57806342842e0e146103a457806342966c68146103c4578063438b6300146103e45780634f6ccce714610411576101f9565b806326a49e37146103275780632f745c59146103475780633028f63a146103675780633502a71614610387576101f9565b8063095ea7b3116101cc578063095ea7b3146102a557806318160ddd146102c55780631c760bdb146102e757806323b872dd14610307576101f9565b806301ffc9a7146101fe57806302329a291461023457806306fdde0314610256578063081812fc14610278575b600080fd5b34801561020a57600080fd5b5061021e610219366004612039565b6105f7565b60405161022b91906121da565b60405180910390f35b34801561024057600080fd5b5061025461024f36600461201f565b61060a565b005b34801561026257600080fd5b5061026b610675565b60405161022b91906121e5565b34801561028457600080fd5b506102986102933660046120b7565b610707565b60405161022b919061212d565b3480156102b157600080fd5b506102546102c0366004611ff6565b61074a565b3480156102d157600080fd5b506102da6107e2565b60405161022b9190612951565b3480156102f357600080fd5b506102546103023660046120b7565b6107e8565b34801561031357600080fd5b50610254610322366004611f19565b610877565b34801561033357600080fd5b506102da6103423660046120b7565b6108af565b34801561035357600080fd5b506102da610362366004611ff6565b6108c3565b34801561037357600080fd5b50610254610382366004611ecd565b610915565b34801561039357600080fd5b506102da6109aa565b6102546109b0565b3480156103b057600080fd5b506102546103bf366004611f19565b610a7a565b3480156103d057600080fd5b506102546103df3660046120b7565b610a95565b3480156103f057600080fd5b506104046103ff366004611ecd565b610b11565b60405161022b9190612196565b34801561041d57600080fd5b506102da61042c3660046120b7565b610bcf565b34801561043d57600080fd5b5061025461044c366004612071565b610c2a565b34801561045d57600080fd5b5061021e610c7c565b34801561047257600080fd5b506102986104813660046120b7565b610c8c565b34801561049257600080fd5b506102da610cc1565b3480156104a757600080fd5b506102da6104b6366004611ecd565b610cc6565b3480156104c757600080fd5b50610254610d0a565b3480156104dc57600080fd5b506102546104eb3660046120b7565b610d55565b3480156104fc57600080fd5b506102da610e14565b34801561051157600080fd5b50610298610e20565b34801561052657600080fd5b5061026b610e2f565b61025461053d3660046120b7565b610e3e565b34801561054e57600080fd5b5061025461055d366004611fcd565b610fc6565b34801561056e57600080fd5b5061025461057d366004611f54565b610fd8565b34801561058e57600080fd5b5061026b61059d3660046120b7565b611017565b3480156105ae57600080fd5b5061026b61109a565b3480156105c357600080fd5b5061021e6105d2366004611ee7565b611128565b3480156105e357600080fd5b506102546105f2366004611ecd565b611156565b6000610602826111c4565b90505b919050565b6106126111e9565b6001600160a01b0316610623610e20565b6001600160a01b0316146106525760405162461bcd60e51b815260040161064990612653565b60405180910390fd5b6001811515141561066a576106656111ed565b610672565b610672611265565b50565b606060008054610684906129e8565b80601f01602080910402602001604051908101604052809291908181526020018280546106b0906129e8565b80156106fd5780601f106106d2576101008083540402835291602001916106fd565b820191906000526020600020905b8154815290600101906020018083116106e057829003601f168201915b5050505050905090565b6000610712826112bf565b61072e5760405162461bcd60e51b815260040161064990612607565b506000908152600460205260409020546001600160a01b031690565b600061075582610c8c565b9050806001600160a01b0316836001600160a01b031614156107895760405162461bcd60e51b815260040161064990612765565b806001600160a01b031661079b6111e9565b6001600160a01b031614806107b757506107b7816105d26111e9565b6107d35760405162461bcd60e51b8152600401610649906124c0565b6107dd83836112dc565b505050565b60085490565b600b5460405163060ee2eb60e21b81526001600160a01b039091169063183b8bac9061081a903390859060040161217d565b600060405180830381600087803b15801561083457600080fd5b505af1158015610848573d6000803e3d6000fd5b5050600b5460408051602081019091526000815261067293506001600160a01b0390911691503390849061134a565b6108886108826111e9565b8261137d565b6108a45760405162461bcd60e51b81526004016106499061284b565b6107dd838383611402565b60006106026703782dace9d900008361152f565b60006108ce83610cc6565b82106108ec5760405162461bcd60e51b81526004016106499061227a565b506001600160a01b03919091166000908152600660209081526040808320938352929052205490565b61091d6111e9565b6001600160a01b031661092e610e20565b6001600160a01b0316146109545760405162461bcd60e51b815260040161064990612653565b600b80546001600160a01b0319166001600160a01b0383161790556040517f6fc192a808b451a9a72be00d4f5c789c4d3822c8dca72d32238842f42974ab0d9061099f90839061212d565b60405180910390a150565b6103e881565b6109b86111e9565b6001600160a01b03166109c9610e20565b6001600160a01b0316146109ef5760405162461bcd60e51b815260040161064990612653565b47806109fa57600080fd5b6000336001600160a01b031682604051610a139061212a565b60006040518083038185875af1925050503d8060008114610a50576040519150601f19603f3d011682016040523d82523d6000602084013e610a55565b606091505b5050905080610a765760405162461bcd60e51b815260040161064990612814565b5050565b6107dd83838360405180602001604052806000815250610fd8565b610a9d610e20565b6001600160a01b0316610aae6111e9565b6001600160a01b031614610ae157610ac4610c7c565b15610ae15760405162461bcd60e51b815260040161064990612489565b610aec6108826111e9565b610b085760405162461bcd60e51b8152600401610649906128f4565b6106728161153b565b60606000610b1e83610cc6565b905060008167ffffffffffffffff811115610b4957634e487b7160e01b600052604160045260246000fd5b604051908082528060200260200182016040528015610b72578160200160208202803683370190505b50905060005b82811015610bc757610b8a85826108c3565b828281518110610baa57634e487b7160e01b600052603260045260246000fd5b602090810291909101015280610bbf81612a23565b915050610b78565b509392505050565b6000610bd96107e2565b8210610bf75760405162461bcd60e51b8152600401610649906128a8565b60088281548110610c1857634e487b7160e01b600052603260045260246000fd5b90600052602060002001549050919050565b610c326111e9565b6001600160a01b0316610c43610e20565b6001600160a01b031614610c695760405162461bcd60e51b815260040161064990612653565b8051610a7690600c906020840190611d9d565b600a54600160a01b900460ff1690565b6000818152600260205260408120546001600160a01b0316806106025760405162461bcd60e51b815260040161064990612567565b601481565b60006001600160a01b038216610cee5760405162461bcd60e51b81526004016106499061251d565b506001600160a01b031660009081526003602052604090205490565b610d126111e9565b6001600160a01b0316610d23610e20565b6001600160a01b031614610d495760405162461bcd60e51b815260040161064990612653565b610d5360006115e2565b565b33610d5f82610c8c565b6001600160a01b031614610d855760405162461bcd60e51b8152600401610649906127dd565b600b546040516367c18bfd60e11b81526001600160a01b039091169063cf8317fa90610db7903390859060040161217d565b600060405180830381600087803b158015610dd157600080fd5b505af1158015610de5573d6000803e3d6000fd5b5050600b5460408051602081019091526000815261067293503392506001600160a01b0390911690849061134a565b6703782dace9d9000081565b600a546001600160a01b031690565b606060018054610684906129e8565b610e46610e20565b6001600160a01b0316610e576111e9565b6001600160a01b031614610e8a57610e6d610c7c565b15610e8a5760405162461bcd60e51b815260040161064990612489565b6000610e946107e2565b90506103e8610ea16107e2565b10610ebe5760405162461bcd60e51b8152600401610649906125e5565b6103e8610ecb838361295a565b1115610ee95760405162461bcd60e51b81526004016106499061241a565b6014610ef433610cc6565b610efe908461295a565b111580610f235750610f0e610e20565b6001600160a01b0316336001600160a01b0316145b610f3f5760405162461bcd60e51b8152600401610649906127a6565b610f48826108af565b341015610f675760405162461bcd60e51b81526004016106499061272e565b60005b828110156107dd576000610f7c6107e2565b9050610f883382611634565b60405181907fc6d5f0780a56a5008e5aeafbdae5285867e09bf756f355e1e5d76a3823c9da7690600090a25080610fbe81612a23565b915050610f6a565b610a76610fd16111e9565b838361164e565b610fe9610fe36111e9565b8361137d565b6110055760405162461bcd60e51b81526004016106499061284b565b6110118484848461134a565b50505050565b6060611022826112bf565b61103e5760405162461bcd60e51b8152600401610649906126d1565b60006110486116f1565b905060008151116110685760405180602001604052806000815250611093565b8061107284611700565b6040516020016110839291906120fb565b6040516020818303038152906040525b9392505050565b600c80546110a7906129e8565b80601f01602080910402602001604051908101604052809291908181526020018280546110d3906129e8565b80156111205780601f106110f557610100808354040283529160200191611120565b820191906000526020600020905b81548152906001019060200180831161110357829003601f168201915b505050505081565b6001600160a01b03918216600090815260056020908152604080832093909416825291909152205460ff1690565b61115e6111e9565b6001600160a01b031661116f610e20565b6001600160a01b0316146111955760405162461bcd60e51b815260040161064990612653565b6001600160a01b0381166111bb5760405162461bcd60e51b815260040161064990612322565b610672816115e2565b60006001600160e01b0319821663780e9d6360e01b1480610602575061060282611833565b3390565b6111f5610c7c565b156112125760405162461bcd60e51b815260040161064990612489565b600a805460ff60a01b1916600160a01b1790557f62e78cea01bee320cd4e420270b5ea74000d11b0c9f74754ebdbfc544b05a25861124e6111e9565b60405161125b919061212d565b60405180910390a1565b61126d610c7c565b6112895760405162461bcd60e51b815260040161064990612243565b600a805460ff60a01b191690557f5db9ee0a495bf2e6ff9c91a7834c1ba4fdd244a5e8aa4e537bd38aeae4b073aa61124e6111e9565b6000908152600260205260409020546001600160a01b0316151590565b600081815260046020526040902080546001600160a01b0319166001600160a01b038416908117909155819061131182610c8c565b6001600160a01b03167f8c5be1e5ebec7d5bd14f71427d1e84f3dd0314c0f7b2291e5b200ac8c7c3b92560405160405180910390a45050565b611355848484611402565b61136184848484611873565b6110115760405162461bcd60e51b8152600401610649906122c5565b6000611388826112bf565b6113a45760405162461bcd60e51b81526004016106499061243d565b60006113af83610c8c565b9050806001600160a01b0316846001600160a01b031614806113ea5750836001600160a01b03166113df84610707565b6001600160a01b0316145b806113fa57506113fa8185611128565b949350505050565b826001600160a01b031661141582610c8c565b6001600160a01b03161461143b5760405162461bcd60e51b815260040161064990612688565b6001600160a01b0382166114615760405162461bcd60e51b81526004016106499061239f565b61146c83838361198e565b6114776000826112dc565b6001600160a01b03831660009081526003602052604081208054600192906114a09084906129a5565b90915550506001600160a01b03821660009081526003602052604081208054600192906114ce90849061295a565b909155505060008181526002602052604080822080546001600160a01b0319166001600160a01b0386811691821790925591518493918716917fddf252ad1be2c89b69c2b068fc378daa952ba7f163c4a11628f55a4df523b3ef91a4505050565b60006110938284612986565b600061154682610c8c565b90506115548160008461198e565b61155f6000836112dc565b6001600160a01b03811660009081526003602052604081208054600192906115889084906129a5565b909155505060008281526002602052604080822080546001600160a01b0319169055518391906001600160a01b038416907fddf252ad1be2c89b69c2b068fc378daa952ba7f163c4a11628f55a4df523b3ef908390a45050565b600a80546001600160a01b038381166001600160a01b0319831681179093556040519116919082907f8be0079c531659141344cd1fd0a4f28419497f9722a3daafe3b4186f6b6457e090600090a35050565b610a768282604051806020016040528060008152506119e5565b816001600160a01b0316836001600160a01b031614156116805760405162461bcd60e51b8152600401610649906123e3565b6001600160a01b0383811660008181526005602090815260408083209487168084529490915290819020805460ff1916851515179055517f17307eab39ab6107e8899845ad3d59bd9653f200f220920489ca2b5937696c31906116e49085906121da565b60405180910390a3505050565b6060600c8054610684906129e8565b60608161172557506040805180820190915260018152600360fc1b6020820152610605565b8160005b811561174f578061173981612a23565b91506117489050600a83612972565b9150611729565b60008167ffffffffffffffff81111561177857634e487b7160e01b600052604160045260246000fd5b6040519080825280601f01601f1916602001820160405280156117a2576020820181803683370190505b5090505b84156113fa576117b76001836129a5565b91506117c4600a86612a3e565b6117cf90603061295a565b60f81b8183815181106117f257634e487b7160e01b600052603260045260246000fd5b60200101907effffffffffffffffffffffffffffffffffffffffffffffffffffffffffffff1916908160001a90535061182c600a86612972565b94506117a6565b60006001600160e01b031982166380ac58cd60e01b148061186457506001600160e01b03198216635b5e139f60e01b145b80610602575061060282611a18565b6000611887846001600160a01b0316611a31565b1561198357836001600160a01b031663150b7a026118a36111e9565b8786866040518563ffffffff1660e01b81526004016118c59493929190612141565b602060405180830381600087803b1580156118df57600080fd5b505af192505050801561190f575060408051601f3d908101601f1916820190925261190c91810190612055565b60015b611969573d80801561193d576040519150601f19603f3d011682016040523d82523d6000602084013e611942565b606091505b5080516119615760405162461bcd60e51b8152600401610649906122c5565b805181602001fd5b6001600160e01b031916630a85bd0160e11b1490506113fa565b506001949350505050565b611999838383611a37565b6119a1610e20565b6001600160a01b03166119b26111e9565b6001600160a01b0316146107dd576119c8610c7c565b156107dd5760405162461bcd60e51b8152600401610649906121f8565b6119ef8383611ac0565b6119fc6000848484611873565b6107dd5760405162461bcd60e51b8152600401610649906122c5565b6001600160e01b031981166301ffc9a760e01b14919050565b3b151590565b611a428383836107dd565b6001600160a01b038316611a5e57611a5981611b9f565b611a81565b816001600160a01b0316836001600160a01b031614611a8157611a818382611be3565b6001600160a01b038216611a9d57611a9881611c80565b6107dd565b826001600160a01b0316826001600160a01b0316146107dd576107dd8282611d59565b6001600160a01b038216611ae65760405162461bcd60e51b8152600401610649906125b0565b611aef816112bf565b15611b0c5760405162461bcd60e51b815260040161064990612368565b611b186000838361198e565b6001600160a01b0382166000908152600360205260408120805460019290611b4190849061295a565b909155505060008181526002602052604080822080546001600160a01b0319166001600160a01b03861690811790915590518392907fddf252ad1be2c89b69c2b068fc378daa952ba7f163c4a11628f55a4df523b3ef908290a45050565b600880546000838152600960205260408120829055600182018355919091527ff3f7a9fe364faab93b216da50a3214154f22a0a2b415b23a84c8169e8b636ee30155565b60006001611bf084610cc6565b611bfa91906129a5565b600083815260076020526040902054909150808214611c4d576001600160a01b03841660009081526006602090815260408083208584528252808320548484528184208190558352600790915290208190555b5060009182526007602090815260408084208490556001600160a01b039094168352600681528383209183525290812055565b600854600090611c92906001906129a5565b60008381526009602052604081205460088054939450909284908110611cc857634e487b7160e01b600052603260045260246000fd5b906000526020600020015490508060088381548110611cf757634e487b7160e01b600052603260045260246000fd5b6000918252602080832090910192909255828152600990915260408082208490558582528120556008805480611d3d57634e487b7160e01b600052603160045260246000fd5b6001900381819060005260206000200160009055905550505050565b6000611d6483610cc6565b6001600160a01b039093166000908152600660209081526040808320868452825280832085905593825260079052919091209190915550565b828054611da9906129e8565b90600052602060002090601f016020900481019282611dcb5760008555611e11565b82601f10611de457805160ff1916838001178555611e11565b82800160010185558215611e11579182015b82811115611e11578251825591602001919060010190611df6565b50611e1d929150611e21565b5090565b5b80821115611e1d5760008155600101611e22565b600067ffffffffffffffff80841115611e5157611e51612a7e565b604051601f8501601f191681016020018281118282101715611e7557611e75612a7e565b604052848152915081838501861015611e8d57600080fd5b8484602083013760006020868301015250509392505050565b80356001600160a01b038116811461060557600080fd5b8035801515811461060557600080fd5b600060208284031215611ede578081fd5b61109382611ea6565b60008060408385031215611ef9578081fd5b611f0283611ea6565b9150611f1060208401611ea6565b90509250929050565b600080600060608486031215611f2d578081fd5b611f3684611ea6565b9250611f4460208501611ea6565b9150604084013590509250925092565b60008060008060808587031215611f69578081fd5b611f7285611ea6565b9350611f8060208601611ea6565b925060408501359150606085013567ffffffffffffffff811115611fa2578182fd5b8501601f81018713611fb2578182fd5b611fc187823560208401611e36565b91505092959194509250565b60008060408385031215611fdf578182fd5b611fe883611ea6565b9150611f1060208401611ebd565b60008060408385031215612008578182fd5b61201183611ea6565b946020939093013593505050565b600060208284031215612030578081fd5b61109382611ebd565b60006020828403121561204a578081fd5b813561109381612a94565b600060208284031215612066578081fd5b815161109381612a94565b600060208284031215612082578081fd5b813567ffffffffffffffff811115612098578182fd5b8201601f810184136120a8578182fd5b6113fa84823560208401611e36565b6000602082840312156120c8578081fd5b5035919050565b600081518084526120e78160208601602086016129bc565b601f01601f19169290920160200192915050565b6000835161210d8184602088016129bc565b8351908301906121218183602088016129bc565b01949350505050565b90565b6001600160a01b0391909116815260200190565b60006001600160a01b0380871683528086166020840152508360408301526080606083015261217360808301846120cf565b9695505050505050565b6001600160a01b03929092168252602082015260400190565b6020808252825182820181905260009190848201906040850190845b818110156121ce578351835292840192918401916001016121b2565b50909695505050505050565b901515815260200190565b60006020825261109360208301846120cf565b6020808252602b908201527f4552433732315061757361626c653a20746f6b656e207472616e73666572207760408201526a1a1a5b19481c185d5cd95960aa1b606082015260800190565b60208082526014908201527f5061757361626c653a206e6f7420706175736564000000000000000000000000604082015260600190565b6020808252602b908201527f455243373231456e756d657261626c653a206f776e657220696e646578206f7560408201526a74206f6620626f756e647360a81b606082015260800190565b60208082526032908201527f4552433732313a207472616e7366657220746f206e6f6e20455243373231526560408201527f63656976657220696d706c656d656e7465720000000000000000000000000000606082015260800190565b60208082526026908201527f4f776e61626c653a206e6577206f776e657220697320746865207a65726f206160408201526564647265737360d01b606082015260800190565b6020808252601c908201527f4552433732313a20746f6b656e20616c7265616479206d696e74656400000000604082015260600190565b60208082526024908201527f4552433732313a207472616e7366657220746f20746865207a65726f206164646040820152637265737360e01b606082015260800190565b60208082526019908201527f4552433732313a20617070726f766520746f2063616c6c657200000000000000604082015260600190565b60208082526009908201526813585e081b1a5b5a5d60ba1b604082015260600190565b6020808252602c908201527f4552433732313a206f70657261746f7220717565727920666f72206e6f6e657860408201526b34b9ba32b73a103a37b5b2b760a11b606082015260800190565b60208082526010908201527f5061757361626c653a2070617573656400000000000000000000000000000000604082015260600190565b60208082526038908201527f4552433732313a20617070726f76652063616c6c6572206973206e6f74206f7760408201527f6e6572206e6f7220617070726f76656420666f7220616c6c0000000000000000606082015260800190565b6020808252602a908201527f4552433732313a2062616c616e636520717565727920666f7220746865207a65604082015269726f206164647265737360b01b606082015260800190565b60208082526029908201527f4552433732313a206f776e657220717565727920666f72206e6f6e657869737460408201526832b73a103a37b5b2b760b91b606082015260800190565b6020808252818101527f4552433732313a206d696e7420746f20746865207a65726f2061646472657373604082015260600190565b60208082526008908201526714d85b1948195b9960c21b604082015260600190565b6020808252602c908201527f4552433732313a20617070726f76656420717565727920666f72206e6f6e657860408201526b34b9ba32b73a103a37b5b2b760a11b606082015260800190565b6020808252818101527f4f776e61626c653a2063616c6c6572206973206e6f7420746865206f776e6572604082015260600190565b60208082526029908201527f4552433732313a207472616e73666572206f6620746f6b656e2074686174206960408201526839903737ba1037bbb760b91b606082015260800190565b6020808252602f908201527f4552433732314d657461646174613a2055524920717565727920666f72206e6f60408201527f6e6578697374656e7420746f6b656e0000000000000000000000000000000000606082015260800190565b60208082526011908201527f56616c75652062656c6f77207072696365000000000000000000000000000000604082015260600190565b60208082526021908201527f4552433732313a20617070726f76616c20746f2063757272656e74206f776e656040820152603960f91b606082015260800190565b6020808252601b908201527f4578636565646564206d617820746f6b656e2070757263686173650000000000604082015260600190565b6020808252601a908201527f5374616b696e673a206f776e6572206e6f74206d617463686564000000000000604082015260600190565b60208082526010908201527f5472616e73666572206661696c65642e00000000000000000000000000000000604082015260600190565b60208082526031908201527f4552433732313a207472616e736665722063616c6c6572206973206e6f74206f60408201527f776e6572206e6f7220617070726f766564000000000000000000000000000000606082015260800190565b6020808252602c908201527f455243373231456e756d657261626c653a20676c6f62616c20696e646578206f60408201526b7574206f6620626f756e647360a01b606082015260800190565b60208082526030908201527f4552433732314275726e61626c653a2063616c6c6572206973206e6f74206f7760408201527f6e6572206e6f7220617070726f76656400000000000000000000000000000000606082015260800190565b90815260200190565b6000821982111561296d5761296d612a52565b500190565b60008261298157612981612a68565b500490565b60008160001904831182151516156129a0576129a0612a52565b500290565b6000828210156129b7576129b7612a52565b500390565b60005b838110156129d75781810151838201526020016129bf565b838111156110115750506000910152565b6002810460018216806129fc57607f821691505b60208210811415612a1d57634e487b7160e01b600052602260045260246000fd5b50919050565b6000600019821415612a3757612a37612a52565b5060010190565b600082612a4d57612a4d612a68565b500690565b634e487b7160e01b600052601160045260246000fd5b634e487b7160e01b600052601260045260246000fd5b634e487b7160e01b600052604160045260246000fd5b6001600160e01b03198116811461067257600080fdfea26469706673582212202cf55084dcda9ec5321ada8361bffa0c17673b580115b14f323bc4014d2fad8b64736f6c63430008000033",
  "devdoc": {
    "kind": "dev",
    "methods": {
      "approve(address,uint256)": {
        "details": "See {IERC721-approve}."
      },
      "balanceOf(address)": {
        "details": "See {IERC721-balanceOf}."
      },
      "getApproved(uint256)": {
        "details": "See {IERC721-getApproved}."
      },
      "isApprovedForAll(address,address)": {
        "details": "See {IERC721-isApprovedForAll}."
      },
      "mint(uint256)": {
        "details": "Mint the _amount of tokens",
        "params": {
          "_amount": "is the token count"
        }
      },
      "name()": {
        "details": "See {IERC721Metadata-name}."
      },
      "owner()": {
        "details": "Returns the address of the current owner."
      },
      "ownerOf(uint256)": {
        "details": "See {IERC721-ownerOf}."
      },
      "paused()": {
        "details": "Returns true if the contract is paused, and false otherwise."
      },
      "renounceOwnership()": {
        "details": "Leaves the contract without owner. It will not be possible to call `onlyOwner` functions anymore. Can only be called by the current owner. NOTE: Renouncing ownership will leave the contract without an owner, thereby removing any functionality that is only available to the owner."
      },
      "safeTransferFrom(address,address,uint256)": {
        "details": "See {IERC721-safeTransferFrom}."
      },
      "safeTransferFrom(address,address,uint256,bytes)": {
        "details": "See {IERC721-safeTransferFrom}."
      },
      "setApprovalForAll(address,bool)": {
        "details": "See {IERC721-setApprovalForAll}."
      },
      "setBaseURI(string)": {
        "details": "set the _baseTokenURI",
        "params": {
          "baseURI": "of the _baseTokenURI"
        }
      },
      "supportsInterface(bytes4)": {
        "details": "See {IERC165-supportsInterface}."
      },
      "symbol()": {
        "details": "See {IERC721Metadata-symbol}."
      },
      "tokenByIndex(uint256)": {
        "details": "See {IERC721Enumerable-tokenByIndex}."
      },
      "tokenOfOwnerByIndex(address,uint256)": {
        "details": "See {IERC721Enumerable-tokenOfOwnerByIndex}."
      },
      "tokenURI(uint256)": {
        "details": "See {IERC721Metadata-tokenURI}."
      },
      "totalSupply()": {
        "details": "See {IERC721Enumerable-totalSupply}."
      },
      "transferFrom(address,address,uint256)": {
        "details": "See {IERC721-transferFrom}."
      },
      "transferOwnership(address)": {
        "details": "Transfers ownership of the contract to a new account (`newOwner`). Can only be called by the current owner."
      }
    },
    "version": 1
  },
  "userdoc": {
    "kind": "user",
    "methods": {},
    "version": 1
  },
  "storageLayout": {
    "storage": [
      {
        "astId": 222,
        "contract": "contracts/nft.sol:TKO",
        "label": "_name",
        "offset": 0,
        "slot": "0",
        "type": "t_string_storage"
      },
      {
        "astId": 224,
        "contract": "contracts/nft.sol:TKO",
        "label": "_symbol",
        "offset": 0,
        "slot": "1",
        "type": "t_string_storage"
      },
      {
        "astId": 228,
        "contract": "contracts/nft.sol:TKO",
        "label": "_owners",
        "offset": 0,
        "slot": "2",
        "type": "t_mapping(t_uint256,t_address)"
      },
      {
        "astId": 232,
        "contract": "contracts/nft.sol:TKO",
        "label": "_balances",
        "offset": 0,
        "slot": "3",
        "type": "t_mapping(t_address,t_uint256)"
      },
      {
        "astId": 236,
        "contract": "contracts/nft.sol:TKO",
        "label": "_tokenApprovals",
        "offset": 0,
        "slot": "4",
        "type": "t_mapping(t_uint256,t_address)"
      },
      {
        "astId": 242,
        "contract": "contracts/nft.sol:TKO",
        "label": "_operatorApprovals",
        "offset": 0,
        "slot": "5",
        "type": "t_mapping(t_address,t_mapping(t_address,t_bool))"
      },
      {
        "astId": 1206,
        "contract": "contracts/nft.sol:TKO",
        "label": "_ownedTokens",
        "offset": 0,
        "slot": "6",
        "type": "t_mapping(t_address,t_mapping(t_uint256,t_uint256))"
      },
      {
        "astId": 1210,
        "contract": "contracts/nft.sol:TKO",
        "label": "_ownedTokensIndex",
        "offset": 0,
        "slot": "7",
        "type": "t_mapping(t_uint256,t_uint256)"
      },
      {
        "astId": 1213,
        "contract": "contracts/nft.sol:TKO",
        "label": "_allTokens",
        "offset": 0,
        "slot": "8",
        "type": "t_array(t_uint256)dyn_storage"
      },
      {
        "astId": 1217,
        "contract": "contracts/nft.sol:TKO",
        "label": "_allTokensIndex",
        "offset": 0,
        "slot": "9",
        "type": "t_mapping(t_uint256,t_uint256)"
      },
      {
        "astId": 7,
        "contract": "contracts/nft.sol:TKO",
        "label": "_owner",
        "offset": 0,
        "slot": "10",
        "type": "t_address"
      },
      {
        "astId": 122,
        "contract": "contracts/nft.sol:TKO",
        "label": "_paused",
        "offset": 20,
        "slot": "10",
        "type": "t_bool"
      },
      {
        "astId": 2492,
        "contract": "contracts/nft.sol:TKO",
        "label": "_pool",
        "offset": 0,
        "slot": "11",
        "type": "t_contract(IStakingPool)2480"
      },
      {
        "astId": 2503,
        "contract": "contracts/nft.sol:TKO",
        "label": "baseTokenURI",
        "offset": 0,
        "slot": "12",
        "type": "t_string_storage"
      }
    ],
    "types": {
      "t_address": {
        "encoding": "inplace",
        "label": "address",
        "numberOfBytes": "20"
      },
      "t_array(t_uint256)dyn_storage": {
        "base": "t_uint256",
        "encoding": "dynamic_array",
        "label": "uint256[]",
        "numberOfBytes": "32"
      },
      "t_bool": {
        "encoding": "inplace",
        "label": "bool",
        "numberOfBytes": "1"
      },
      "t_contract(IStakingPool)2480": {
        "encoding": "inplace",
        "label": "contract IStakingPool",
        "numberOfBytes": "20"
      },
      "t_mapping(t_address,t_bool)": {
        "encoding": "mapping",
        "key": "t_address",
        "label": "mapping(address => bool)",
        "numberOfBytes": "32",
        "value": "t_bool"
      },
      "t_mapping(t_address,t_mapping(t_address,t_bool))": {
        "encoding": "mapping",
        "key": "t_address",
        "label": "mapping(address => mapping(address => bool))",
        "numberOfBytes": "32",
        "value": "t_mapping(t_address,t_bool)"
      },
      "t_mapping(t_address,t_mapping(t_uint256,t_uint256))": {
        "encoding": "mapping",
        "key": "t_address",
        "label": "mapping(address => mapping(uint256 => uint256))",
        "numberOfBytes": "32",
        "value": "t_mapping(t_uint256,t_uint256)"
      },
      "t_mapping(t_address,t_uint256)": {
        "encoding": "mapping",
        "key": "t_address",
        "label": "mapping(address => uint256)",
        "numberOfBytes": "32",
        "value": "t_uint256"
      },
      "t_mapping(t_uint256,t_address)": {
        "encoding": "mapping",
        "key": "t_uint256",
        "label": "mapping(uint256 => address)",
        "numberOfBytes": "32",
        "value": "t_address"
      },
      "t_mapping(t_uint256,t_uint256)": {
        "encoding": "mapping",
        "key": "t_uint256",
        "label": "mapping(uint256 => uint256)",
        "numberOfBytes": "32",
        "value": "t_uint256"
      },
      "t_string_storage": {
        "encoding": "bytes",
        "label": "string",
        "numberOfBytes": "32"
      },
      "t_uint256": {
        "encoding": "inplace",
        "label": "uint256",
        "numberOfBytes": "32"
      }
    }
  }
}